{
  "contractName": "MyWallet",
  "abi": [
    {
      "constant": false,
      "inputs": [],
      "name": "kill",
      "outputs": [],
      "payable": false,
      "stateMutability": "nonpayable",
      "type": "function"
    },
    {
      "constant": false,
      "inputs": [
        {
          "name": "_to",
          "type": "address"
        },
        {
          "name": "_value",
          "type": "uint256"
        },
        {
          "name": "_reason",
          "type": "string"
        }
      ],
      "name": "sendMoneyOn",
      "outputs": [
        {
          "name": "",
          "type": "uint256"
        }
      ],
      "payable": false,
      "stateMutability": "nonpayable",
      "type": "function"
    },
    {
      "constant": false,
      "inputs": [
        {
          "name": "prop_id",
          "type": "uint256"
        }
      ],
      "name": "confirmProposal",
      "outputs": [
        {
          "name": "",
          "type": "bool"
        }
      ],
      "payable": false,
      "stateMutability": "nonpayable",
      "type": "function"
    },
    {
      "payable": true,
      "stateMutability": "payable",
      "type": "fallback"
    },
    {
      "anonymous": false,
      "inputs": [
        {
          "indexed": true,
          "name": "_from",
          "type": "address"
        },
        {
          "indexed": false,
          "name": "_amount",
          "type": "uint256"
        }
      ],
      "name": "receiveFunds",
      "type": "event"
    },
    {
      "anonymous": false,
      "inputs": [
        {
          "indexed": true,
          "name": "_from",
          "type": "address"
        },
        {
          "indexed": true,
          "name": "_to",
          "type": "address"
        },
        {
          "indexed": false,
          "name": "_reason",
          "type": "string"
        }
      ],
      "name": "proposalReceived",
      "type": "event"
    }
  ],
  "bytecode": "0x6060604052336000806101000a81548173ffffffffffffffffffffffffffffffffffffffff021916908373ffffffffffffffffffffffffffffffffffffffff16021790555061076e806100536000396000f300606060405260043610610057576000357c0100000000000000000000000000000000000000000000000000000000900463ffffffff16806341c0e1b5146100b1578063cadadb10146100c6578063f4a4f4d21461015f575b60003411156100af573373ffffffffffffffffffffffffffffffffffffffff167f740227d1882f469349516bf364d3d4ac858650bf6537132a4b0bc7c6aea0876e346040518082815260200191505060405180910390a25b005b34156100bc57600080fd5b6100c461019a565b005b34156100d157600080fd5b610149600480803573ffffffffffffffffffffffffffffffffffffffff1690602001909190803590602001909190803590602001908201803590602001908080601f0160208091040260200160405190810160405280939291908181526020018383808284378201915050505050509190505061022b565b6040518082815260200191505060405180910390f35b341561016a57600080fd5b61018060048080359060200190919050506104fe565b604051808215151515815260200191505060405180910390f35b6000809054906101000a900473ffffffffffffffffffffffffffffffffffffffff1673ffffffffffffffffffffffffffffffffffffffff163373ffffffffffffffffffffffffffffffffffffffff161415610229576000809054906101000a900473ffffffffffffffffffffffffffffffffffffffff1673ffffffffffffffffffffffffffffffffffffffff16ff5b565b6000803373ffffffffffffffffffffffffffffffffffffffff166000809054906101000a900473ffffffffffffffffffffffffffffffffffffffff1673ffffffffffffffffffffffffffffffffffffffff1614156102cb578473ffffffffffffffffffffffffffffffffffffffff166108fc859081150290604051600060405180830381858888f1935050505090508015156102c657600080fd5b6104f5565b60016000815480929190600101919050555060a0604051908101604052803373ffffffffffffffffffffffffffffffffffffffff1681526020018673ffffffffffffffffffffffffffffffffffffffff1681526020018581526020018481526020016000151581525060026000600154815260200190815260200160002060008201518160000160006101000a81548173ffffffffffffffffffffffffffffffffffffffff021916908373ffffffffffffffffffffffffffffffffffffffff16021790555060208201518160010160006101000a81548173ffffffffffffffffffffffffffffffffffffffff021916908373ffffffffffffffffffffffffffffffffffffffff1602179055506040820151816002015560608201518160030190805190602001906103fd92919061069d565b5060808201518160040160006101000a81548160ff0219169083151502179055509050508473ffffffffffffffffffffffffffffffffffffffff163373ffffffffffffffffffffffffffffffffffffffff167f24bb5c74895c3fd8414e0d433edece1a9f0833ae289514c568d306738c5f1a77856040518080602001828103825283818151815260200191508051906020019080838360005b838110156104b1578082015181840152602081019050610496565b50505050905090810190601f1680156104de5780820380516001836020036101000a031916815260200191505b509250505060405180910390a360015491506104f6565b5b509392505050565b6000806000809054906101000a900473ffffffffffffffffffffffffffffffffffffffff1673ffffffffffffffffffffffffffffffffffffffff163373ffffffffffffffffffffffffffffffffffffffff1614151561055957fe5b600260008481526020019081526020016000209050600073ffffffffffffffffffffffffffffffffffffffff168160000160009054906101000a900473ffffffffffffffffffffffffffffffffffffffff1673ffffffffffffffffffffffffffffffffffffffff1614151561069657600115158160040160009054906101000a900460ff1615151415156106955760018160040160006101000a81548160ff0219169083151502179055508060010160009054906101000a900473ffffffffffffffffffffffffffffffffffffffff1673ffffffffffffffffffffffffffffffffffffffff166108fc82600201549081150290604051600060405180830381858888f193505050501561066f5760019150610697565b60008160040160006101000a81548160ff02191690831515021790555060009150610697565b5b5b50919050565b828054600181600116156101000203166002900490600052602060002090601f016020900481019282601f106106de57805160ff191683800117855561070c565b8280016001018555821561070c579182015b8281111561070b5782518255916020019190600101906106f0565b5b509050610719919061071d565b5090565b61073f91905b8082111561073b576000816000905550600101610723565b5090565b905600a165627a7a72305820614f72b589b90537a18d035a032060978e70940474eb4ce540e35909ad02cc220029",
  "source": "pragma solidity ^0.4.17;\r\nimport \"./mortal.sol\";\r\n\r\ncontract MyWallet is mortal{\r\n    event receiveFunds(address indexed _from, uint _amount);\r\n    event proposalReceived(address indexed _from, address indexed _to, string _reason);\r\n    uint proposalcounter;\r\n    struct Proposal{\r\n        address _from;\r\n        address _to;\r\n        uint256 _value;\r\n        string _reason;\r\n        bool sent;\r\n    }\r\n    \r\n    mapping(uint=>Proposal) m_Proposals;\r\n    \r\n    function sendMoneyOn(address _to, uint256 _value, string _reason) public returns(uint256){\r\n        if(owner==msg.sender){\r\n            bool sent=_to.send(_value);\r\n            if(!sent){\r\n                revert();\r\n            }\r\n        }\r\n        else{\r\n            proposalcounter++;\r\n            m_Proposals[proposalcounter]=Proposal(msg.sender,_to,_value,_reason,false);\r\n            proposalReceived(msg.sender,_to, _reason);\r\n            return proposalcounter;\r\n        }\r\n    }\r\n    \r\n    function confirmProposal(uint256 prop_id) onlyowner public returns(bool){\r\n        Proposal prop=m_Proposals[prop_id];\r\n        if(prop._from!=address(0)){\r\n            if(prop.sent!=true){\r\n                prop.sent=true;\r\n                if(prop._to.send(prop._value)){\r\n                    return true;\r\n                }\r\n                prop.sent=false;\r\n                return false;\r\n            }\r\n        }\r\n    }\r\n    function() payable public {\r\n        if(msg.value>0){\r\n            receiveFunds(msg.sender,msg.value);\r\n        }\r\n    }\r\n}\r\n",
  "sourcePath": "D:\\Block\\udem\\Truffle\\RestaurantVotingMahesPractice\\contracts\\MyWallet.sol",
  "compiler": {
    "name": "solc",
    "version": "0.4.18+commit.9cf6e910.Emscripten.clang"
  },
  "schemaVersion": "1.0.1",
  "updatedAt": "2018-02-17T14:37:51.203Z"
}