{
  "contractName": "Voting",
  "abi": [
    {
      "constant": false,
      "inputs": [
        {
          "name": "candidate",
          "type": "bytes32"
        }
      ],
      "name": "VoteCandidate",
      "outputs": [],
      "payable": false,
      "stateMutability": "nonpayable",
      "type": "function"
    },
    {
      "constant": true,
      "inputs": [
        {
          "name": "candidate",
          "type": "bytes32"
        }
      ],
      "name": "totalVotesFor",
      "outputs": [
        {
          "name": "",
          "type": "uint8"
        }
      ],
      "payable": false,
      "stateMutability": "view",
      "type": "function"
    },
    {
      "constant": true,
      "inputs": [
        {
          "name": "candidate",
          "type": "bytes32"
        }
      ],
      "name": "validCandidate",
      "outputs": [
        {
          "name": "",
          "type": "bool"
        }
      ],
      "payable": false,
      "stateMutability": "view",
      "type": "function"
    },
    {
      "constant": true,
      "inputs": [
        {
          "name": "",
          "type": "bytes32"
        }
      ],
      "name": "votesReceived",
      "outputs": [
        {
          "name": "",
          "type": "uint8"
        }
      ],
      "payable": false,
      "stateMutability": "view",
      "type": "function"
    },
    {
      "constant": true,
      "inputs": [
        {
          "name": "",
          "type": "uint256"
        }
      ],
      "name": "candidateList",
      "outputs": [
        {
          "name": "",
          "type": "bytes32"
        }
      ],
      "payable": false,
      "stateMutability": "view",
      "type": "function"
    },
    {
      "constant": false,
      "inputs": [
        {
          "name": "candidate",
          "type": "bytes32"
        }
      ],
      "name": "voteForCandidate",
      "outputs": [],
      "payable": false,
      "stateMutability": "nonpayable",
      "type": "function"
    },
    {
      "inputs": [
        {
          "name": "candidateNames",
          "type": "bytes32[]"
        }
      ],
      "payable": false,
      "stateMutability": "nonpayable",
      "type": "constructor"
    }
  ],
  "bytecode": "0x6060604052341561000f57600080fd5b60405161046d38038061046d833981016040528080518201919050508060019080519060200190610041929190610048565b50506100c0565b82805482825590600052602060002090810192821561008a579160200282015b82811115610089578251829060001916905591602001919060010190610068565b5b509050610097919061009b565b5090565b6100bd91905b808211156100b95760008160009055506001016100a1565b5090565b90565b61039e806100cf6000396000f300606060405260043610610078576000357c0100000000000000000000000000000000000000000000000000000000900463ffffffff16806313bb81f91461007d5780632f265cf7146100a4578063392e6678146100e55780637021939f14610124578063b13c744b14610165578063cc9ab267146101a4575b600080fd5b341561008857600080fd5b6100a26004808035600019169060200190919050506101cb565b005b34156100af57600080fd5b6100c960048080356000191690602001909190505061022c565b604051808260ff1660ff16815260200191505060405180910390f35b34156100f057600080fd5b61010a600480803560001916906020019091905050610271565b604051808215151515815260200191505060405180910390f35b341561012f57600080fd5b6101496004808035600019169060200190919050506102d1565b604051808260ff1660ff16815260200191505060405180910390f35b341561017057600080fd5b61018660048080359060200190919050506102f1565b60405180826000191660001916815260200191505060405180910390f35b34156101af57600080fd5b6101c9600480803560001916906020019091905050610315565b005b6101d481610271565b15156101df57600080fd5b6000808260001916600019168152602001908152602001600020600081819054906101000a900460ff168092919060010191906101000a81548160ff021916908360ff1602179055505050565b600061023782610271565b151561024257600080fd5b600080836000191660001916815260200190815260200160002060009054906101000a900460ff169050919050565b600080600090505b6001805490508110156102c657826000191660018281548110151561029a57fe5b9060005260206000209001546000191614156102b957600191506102cb565b8080600101915050610279565b600091505b50919050565b60006020528060005260406000206000915054906101000a900460ff1681565b60018181548110151561030057fe5b90600052602060002090016000915090505481565b61031e81610271565b151561032957600080fd5b6001600080836000191660001916815260200190815260200160002060008282829054906101000a900460ff160192506101000a81548160ff021916908360ff160217905550505600a165627a7a723058202972505c25f56272f3ce693396826d10a66cc71764c66c98ea4a45477e8e8dfb0029",
  "source": "pragma solidity ^0.4.18;\r\n\r\ncontract Voting {\r\n   \r\n  mapping (bytes32 => uint8) public votesReceived;\r\n      \r\n  bytes32[] public candidateList;\r\n\r\n  \r\n  function Voting(bytes32[] candidateNames) public {\r\n    candidateList = candidateNames;\r\n  }\r\n\r\n  // This function returns the total votes a candidate has received so far\r\n  function totalVotesFor(bytes32 candidate) view public returns (uint8) {\r\n    require(validCandidate(candidate));\r\n    return votesReceived[candidate];\r\n  }\r\n\r\n  function voteForCandidate(bytes32 candidate) public {\r\n    require(validCandidate(candidate));\r\n    votesReceived[candidate] += 1;\r\n  }\r\nfunction VoteCandidate(bytes32 candidate) public{\r\n        require(validCandidate(candidate));\r\n        votesReceived[candidate]++;\r\n    }\r\n  function validCandidate(bytes32 candidate) view public returns (bool) {\r\n    for(uint i = 0; i < candidateList.length; i++) {\r\n      if (candidateList[i] == candidate) {\r\n        return true;\r\n      }\r\n    }\r\n    return false;\r\n  }\r\n}",
  "sourcePath": "D:\\Block\\udem\\Truffle\\RestaurantVotingMahesPractice\\contracts\\Voting.sol",
  "compiler": {
    "name": "solc",
    "version": "0.4.18+commit.9cf6e910.Emscripten.clang"
  },
  "schemaVersion": "1.0.1",
  "updatedAt": "2018-02-18T10:20:04.119Z"
}